:020000040800F2
:1000000000050020450100082F1A0008FB18000811
:100010002D1A00080D0300085D1C000800000000F8
:10002000000000000000000000000000591A000855
:100030005503000800000000311A00085B1A000890
:100040005F0100085F0100085F0100085F01000810
:100050005F0100085F0100085F0100085F01000800
:100060005F0100085F0100085F010008110300083C
:100070005F0100085F0100085F0100085F010008E0
:100080005F0100085F0100085F0100085F010008D0
:100090005F0100085F0100085F0100085F010008C0
:1000A0005F0100085F0100085F0100085F010008B0
:1000B0005F0100085F0100085F0100085F010008A0
:1000C0005F0100085F0100085F0100085F01000890
:1000D0005F0100085F0100085F0100085F01000880
:1000E0005F0100085F0100085F0100085F01000870
:1000F0005F0100085F0100085F0100085F01000860
:100100005F0100085F0100085F0100085F0100084F
:100110005F0100085F0100085F0100085F0100083F
:100120005F0100085F0100085F0100085F0100082F
:10013000DFF80CD000F02AF8004800477D1C0008CA
:10014000000500200648804706480047FEE7FEE716
:10015000FEE7FEE7FEE7FEE7FEE7FEE7FEE7FEE777
:10016000D51A000831010008D2B201E000F8012BD5
:10017000491EFBD270470022F6E710B513460A4627
:1001800004461946FFF7F0FF204610BD064C074D08
:1001900006E0E06840F0010394E807009847103457
:1001A000AC42F6D3FFF7C8FFE81E0008081F00089E
:1001B00070B504462068816811F0010F24D0816871
:1001C00021F00101816000F033FE0546206880685F
:1001D00010F0010F18D000F02BFE401B02280ED9A2
:1001E0002068806810F0010F09D0A06A40F010006C
:1001F000A062E06A40F00100E062012070BD20686A
:10020000806810F0010FE6D1002070BD10B50246E5
:10021000506A816A11F0500F05D0006A016BBDE889
:10022000104010460847816A41F4007181620168FC
:1002300089684FF4602232EA01010DD1017B59B97E
:10024000816A21F480718162816A11F4805F03D137
:10025000816A41F00101816200F012F910BD10B510
:10026000406A816A41F040018162C16A41F0040143
:10027000C16200F018F910BD10B5406A00F012F923
:1002800010BD0000F8B5044600260096206881687D
:1002900011F0010F28D1816841F0010181601948F6
:1002A00019490068B0FBF1F00090009828B100985F
:1002B000401E009000980028F9D100F0B9FD0546D5
:1002C0002068806810F0010F0ED100F0B1FD401BD6
:1002D000022804D92068806810F0010F06D0206839
:1002E000806810F0010FF0D00020F8BDA06A40F047
:1002F0001000A062E06A40F00100E06284F824602F
:100300000120F8BD3000002040420F00FEE7000051
:10031000014800F05BBA0000BC00002010B490F867
:1003200040C0012404FA0CFCC46BC4F804C0D0F82B
:1003300000C0CCF804304368102B05D003689960E6
:100340000068C26010BC704703689A600068C160B2
:1003500010BC70477047FEE778B44FF0000C0024E3
:10036000009490F82420012A14D0012280F824203F
:100370004A681F25072A10D203685E6B521E02EBE3
:100380008202954026EA05050E6806FA02F22A4323
:100390005A631FE078BC022070470D2A0DD2036813
:1003A0001E6BD21F02EB8202954026EA05050E68FD
:1003B00006FA02F22A431A630CE00368DE6A0D3A79
:1003C00002EB8202954026EA05050E6806FA02F263
:1003D0002A43DA620A6807250A2A0DD30368DE6811
:1003E0000A3A02EB4202954026EA05058E6806FAB3
:1003F00002F22A43DA600BE003681E6902EB420254
:10040000954026EA05058E6806FA02F22A431A612B
:100410000A68102A01D0112A0BD10268A2F1804388
:10042000B3F592330AD0816A41F0200181624FF026
:10043000010C80F8244078BC60467047936813F440
:10044000000FF6D1936843F4000393600968102904
:10045000EFD10949094A0968B1FBF2F101EB8101C9
:100460004900009100990029E3D00099491E0091AC
:1004700000990029F9D1DCE73000002040420F004C
:100480000648074902688A604268CA6082680A6151
:10049000C2684A610069886170470000A8000020B6
:1004A00000000020704770472DE9F0410446002508
:1004B000002C03D0A06A002618B108E00120BDE896
:1004C000F081E66284F82460204600F08FF8204630
:1004D000FFF76EFE0146A06A10F0100F00D139B18F
:1004E000A06A40F01000A06201210846BDE8F0813A
:1004F000A06A20F4885040F00200A0622268A2F1B5
:100500008040B0F59E3011D0E06994F80CC040EA0C
:100510004C0360680343A068B0F5807F0DD00128CC
:100520000BD00020277D012F0AD018E0E069B0F53C
:10053000402FEAD14FF40020E7E74FF48070F1E755
:10054000BCF1000F21D0D4F828C04CF0200CC4F826
:1005500028C0D4F82CC04CF0010CC4F82CC0D2F840
:1005600004C02CF4694C4CEA00005060206882689A
:10057000DFF870C002EA0C021A438260A068B0F58E
:10058000807F0BD0012809D00BE0D4F818C0ACF163
:10059000010C40EA4C3040F40060E0E7208A401E45
:1005A00005052068C26A22F470022A43C2622068EC
:1005B00080680D4A1040984207D1E662A06A20F098
:1005C000020040F00100A0628FE7A06A20F0020064
:1005D00040F01000A062E06A40F00100E0620121FA
:1005E00083E70000FDF7E1FFFE0E1FFF70B586B048
:1005F000002506460095019502950395006821495E
:1006000088423DD12049886940F40070886188693A
:1006100000F400700490886940F0100088618869D7
:1006200000F010000490886940F004008861886937
:10063000032400F0040004901C20CDE90004694666
:10064000124800F0D3FA0C20CDE9000469461048A6
:1006500000F0CCFA104C0F48C4E900058020C4E932
:10066000025080002061800060612020C4E90605FE
:10067000204600F015FA08B1FFF76DFE346266629D
:1006800006B070BD0024014000100240001001407F
:100690000008014008000240BC0000202DE9F0479E
:1006A0000446884691462068434F444EA0F1804A54
:1006B000BAF5923A01D0B84207D1306810F4702FE1
:1006C00003D001252846BDE8F08794F824000128CE
:1006D0000BD0012084F824002046FFF7D3FD054607
:1006E00000212DB184F82410ECE70220BDE8F0874A
:1006F000A06A20F0010020F4606040F48070A062E5
:100700002068B8421AD1326812F4702F16D0A26A4B
:1007100042F48012A262306810F4806F05D0A06AA3
:1007200020F4005040F48050A062A06A10F4805F72
:1007300013D0E06A20F00600E0620FE0A26A22F423
:100740008012A262406810F4806FEED0A06A20F49C
:10075000005040F48050A062E7E7E16284F8241082
:10076000216A17488862216A1648C862216A1648B9
:10077000086321686FF0020008602068816841F416
:100780008071816020684B4600F14C014246206A2E
:1007900000F0DAF9206881684FF4602232EA010142
:1007A00004D0816841F4801181608BE7816841F455
:1007B000A001816086E70000002801400424014078
:1007C0000D020008790200085F0200082DE9F05FC1
:1007D000C16B0A6801680B68D0F840B04FF0040C98
:1007E0000CFA0BFC1CEA020FDFF880C2A04CA14DF2
:1007F000A14EA24FDFF88882DFF88892DFF888A246
:1008000070D013F0040F7ED00A6812F0200F03D1CD
:100810000A6822F004020A609C4A0168914233D9B6
:10082000614501D104212CE0A14201D1402128E001
:10083000A94202D14FF4806123E0B14202D14FF4CA
:1008400080411EE0B94202D14FF4802119E04145B8
:1008500002D14FF4800114E0494501D1042110E098
:10086000514501D140210CE0894A914201D109153D
:1008700007E0884A914202D14FF4804101E04FF4F1
:100880008021854A116038E0614501D1042132E0C0
:10089000A14201D140212EE0A94202D14FF4806152
:1008A00029E0B14202D14FF4804124E0B94202D1A3
:1008B0004FF480211FE0414502D14FF480011AE03E
:1008C000914202D14FF0806115E0494501D10421E8
:1008D00011E0514501D140210DE06D4A914202D114
:1008E000091508E00FE06B4A914202D14FF48041B4
:1008F00001E04FF48021694A5160C16A002970D03B
:10090000BDE8F05F08474FF0020E0EFA0BFE1EEA3C
:10091000020F67D013F0020F64D00A6812F0200FA4
:1009200006D10A6822F00A020A60012180F821102B
:10093000564A0168914233D9614501D102212CE028
:10094000A14201D1202128E0A94202D14FF4007137
:1009500023E0B14202D14FF400511EE0B94202D16E
:100960004FF4003119E0414502D14FF4001114E079
:10097000494501D1022110E0514501D120210CE06F
:10098000434A914201D1491507E0424A914202D1BE
:100990004FF4005101E04FF400313F4A116039E05B
:1009A000614501D1022133E0A14201D120212FE094
:1009B000A94202D14FF400712AE0B14202D14FF4B2
:1009C000005125E0B94202D14FF4003120E0414509
:1009D00002D14FF400111BE0914204D14FF000719D
:1009E00016E041E01FE0494501D1022110E05145E8
:1009F00001D120210CE0264A914201D1491507E09E
:100A0000244A914202D14FF4005101E04FF40031E9
:100A1000224A5160002180F82010816A002923D0E9
:100A2000BDE8F05F08474FF0080C0CFA0BFC1CEA1D
:100A3000020F19D013F0080F16D00A6822F00E0228
:100A40000A6090F84020C36B012101FA02F25A605B
:100A5000816380F82110002180F82010016B0029AB
:100A600002D0BDE8F05F0847BDE8F09F08000240F3
:100A70001C00024030000240440002405800024086
:100A80006C000240080402401C0402408000024046
:100A900030040240440402400404024000000240CA
:100AA00010B400280ED0224B0168224A99420CD281
:100AB000214B0B44A2FB03321209920002641F4A2D
:100AC000C2630BE010BC012070471D4B0B44A2FB1E
:100AD00003321209920002641A4AC263022280F8A9
:100AE00021200A686FF30D12D0F808C0436804692A
:100AF00043EA0C03D0F80CC04CEA040C43EA0C03A4
:100B0000D0F814C043EA0C03D0F818C043EA0C0331
:100B1000D0F81CC043EA0C031A430A600021816329
:100B2000012280F8212080F8201010BC002070479E
:100B300008040240CDCCCCCCF8FFFDBF0000024041
:100B4000F8FBFDBF0004024070B50446002594F890
:100B5000200001280DD0012084F8200094F821C045
:100B60000020BCF1010F06D084F8200002252846A1
:100B700070BD022070BD4FF0020C84F821C0A0634C
:100B80002068D0F800C02CF0010CC0F800C020464E
:100B9000FFF7C4FBE06A28B12068016841F00E014C
:100BA000016009E02068016821F00401016020680B
:100BB000016841F00A0101602068016841F001010B
:100BC0000160D4E770B5044600F032F90546B4F18F
:100BD000FF3F02D004480078044400F029F9401B8C
:100BE000A042FAD370BD0000240000202DE9F84F88
:100BF0004FF0000C00230A68002A7DD0DFF8F8814E
:100C00000F2708F1040909F1040A0AF1040B012273
:100C100002FA0CF60A683240B2426ED1DFF8DCE12B
:100C20004C68A4EB0E0574452BD00DDC032C34D09E
:100C300005DC34B3012C19D0022C2FD11BE0112C70
:100C400016D0122C2AD119E0B5F5881F19D006DC70
:100C5000B5F5803F15D0B5F5801F1FD111E0B5F572
:100C6000001F0ED0B5F5041F18D10AE0CB6815E0BF
:100C7000CB681B1D12E0CB6808330FE0CB680C3348
:100C80000CE08B6823B1012B04D00823466105E0FA
:100C9000042303E00823066100E00023B2F5807F0F
:100CA00001D2054601E000F1040502D24FEA8C04AE
:100CB00003E0ACF108044FEA84042E6807FA04FE4E
:100CC00026EA0E0603FA04F446EA04042C604C6893
:100CD00014F0805F11D04A4CA56945F00105A5616B
:100CE000A46904F0010400942CF0030404F180448E
:100CF00004F58034A66801E07CE074E04FEA8C756E
:100D00004FEA157507FA05FE26EA0E0EA0F1804699
:100D1000B6F5843628D0A0F18046B6F5863625D0C3
:100D2000A0F18046B6F5883622D0A0F18046B6F50F
:100D30008A361FD0A0F18046B6F58C361CD0A0F1C3
:100D40008046B6F58E3619D0062606FA05F545EA30
:100D50000E05A5604C6814F4803F11D0D8F800400F
:100D60001443C8F8004010E00026EEE70126ECE747
:100D70000226EAE70326E8E70426E6E70526E4E795
:100D8000D8F800409443C8F800404C6814F4003F81
:100D900005D0D9F800401443C9F8004004E0D9F860
:100DA00000409443C9F800404C6814F4801F05D0FB
:100DB000DAF800401443CAF8004004E0DAF80040D2
:100DC0009443CAF800404C6814F4001F05D0DBF8C7
:100DD00000402243CBF8002005E0DBF8004024EA85
:100DE0000202CBF800200CF1010C0A6832FA0CF276
:100DF0007FF40DAFBDE8F88F000401400000111032
:100E0000001002408068084201D001207047002095
:100E10007047C26821EA0203114043EA01410161BF
:100E20007047002A01D001617047090401617047D1
:100E30000148806870470000240000200248816853
:100E400002781144816070472400002010B50748E3
:100E5000016841F010010160032000F089F80020D2
:100E600000F006F800F026F8002010BD0020024037
:100E700070B504460D4D4FF47A712878B1FBF0F04F
:100E80000B490968B1FBF0F000F054FC08B10120F7
:100E900070BD102C07D200222146501E00F034F8FD
:100EA0006C60002070BD012070BD00002400002097
:100EB000300000200B4808B5816941F001018161D3
:100EC000816901F001010091C16941F08051C16166
:100ED000C06900F0805000900348416821F0E06153
:100EE000416008BD001002400000014000280ADBFC
:100EF00000F01F01012202FA01F14009800000F117
:100F0000E020C0F80011704710B4184B1B68C3F301
:100F10000223C3F1070CBCF1040F01D94FF0040CFC
:100F20001C1D072C01D2002300E0DB1E012404FA63
:100F30000CFCACF1010C0CEA0101994004FA03F33A
:100F40005B1E1A401143002806DB00F1E020090176
:100F500080F8001410BC704700F00F0000F1E02092
:100F6000090180F8141D10BC704700000CED00E072
:100F700000F00700064A11684FF6FF03194041EAE6
:100F8000002040F0FD7040F080601060704700006D
:100F90000CED00E02DE9F8430446DFF81C812078D1
:100FA00010F0010F6CD00027D8F81C0010F0805F03
:100FB0000BD1D8F81C0040F08050C8F81C00D8F8BD
:100FC0001C0000F08050009001273C4D286810F470
:100FD000807F16D1286840F480702860FFF728FFD2
:100FE0000646286810F4807F0BD1FFF721FF801B95
:100FF000642802D90320BDE8F883286810F4807FB4
:10100000F3D0D8F8200000F4407048B3A18801F470
:101010004071814224D0D8F8200020F44070284943
:1010200001220A6000220A60C8F8200010F0010FB7
:1010300016D0FFF7FDFE0546D8F8200010F0020F8D
:101040000ED141F28836FFF7F3FE401BB04202D9C1
:101050000320BDE8F883D8F8200010F0020FF2D08A
:10106000D8F82000616820F440700843C8F82000D8
:10107000012F05D1D8F81C0020F08050C8F81C00C2
:10108000207810F0020F07D0D8F80400A16820F4EF
:1010900040400843C8F80400207810F0100F07D033
:1010A000D8F80400616920F480000843C8F80400FF
:1010B0000020BDE8F88300000010024000700040EE
:1010C000400442422DE9F04704460D46002C17D05B
:1010D000DFF85C81D8F8000000F00700A84212D2C7
:1010E000D8F8000020F007002843C8F80000D8F81E
:1010F000000000F00700A84205D00120BDE8F087FD
:101100000120BDE8F08720684A4E10F0020F14D08D
:1011100010F0040F03D0706840F4E0607060207835
:1011200010F0080F03D0706840F460507060706871
:1011300020F0F001A06808437060207810F0010FE3
:101140003AD06068012806D002280BD0316811F02F
:10115000020F27D00AE0316811F4003F06D10120C8
:10116000BDE8F087316811F0007F18D0716821F078
:10117000030108437060FFF75BFE07467068616813
:1011800000F00C00B0EB810F16D041F28839FFF768
:101190004FFEC01B484508D90320BDE8F087012059
:1011A000BDE8F0870120BDE8F0877068616800F055
:1011B0000C00B0EB810FEAD1D8F8000000F0070076
:1011C000A8420FD9D8F8000020F007002843C8F83B
:1011D0000000D8F8000000F00700A84202D001206B
:1011E000BDE8F087207810F0040F05D07068E16842
:1011F00020F4E06008437060207810F0080F06D0FB
:101200007068216920F4605040EAC100706000F00D
:101210003FF87168084AC1F30311515CC84007499F
:10122000086007480068FFF723FE0020BDE8F0874C
:101230000020024000100240D01E000830000020B4
:10124000280000200148006870470000300000209E
:1012500000B5FFF7F7FF04494968044AC1F30221CA
:10126000515CC84000BD000000100240E01E0008B4
:1012700000B5FFF7E7FF04494968044AC1F3C221FA
:10128000515CC84000BD000000100240E01E000894
:1012900085B015A0836842680168C0680393029214
:1012A0000191049014A000680090144B59681448F0
:1012B00001F00C02042A11D0082A0FD101A8C1F3B1
:1012C0008342805C11F4803F0AD05968C1F34041E9
:1012D0001DF801100A4A5043B0FBF1F005B0704709
:1012E000084905B04843704702030405060708098A
:1012F0000A0B0C0D0E0F101001020000001002402E
:1013000000127A0000093D002DE9F84F0446002C38
:101310000FD02078F84D10F0010F6CD0686800F005
:101320000C0004280CD0686800F00C00082803D0DA
:1013300010E00120BDE8F88F686810F4803F09D004
:10134000286810F4003F56D06068002853D101206F
:10135000BDE8F88F6068B0F5803F15D0C8B1B0F532
:10136000A02F1FD0286820F480302860286820F43F
:1013700080202860606858B3FFF75AFD0646286849
:1013800010F4003F17D036E0286840F48030286021
:10139000F0E7286820F480302860286820F4802056
:1013A0002860E7E7286840F480202860286840F437
:1013B00080302860DEE7FFF73BFD801B642802D900
:1013C0000320BDE8F88F286810F4003FF3D012E046
:1013D000FFF72EFD0646286810F4003F0BD0FFF7FC
:1013E00027FD801B642802D90320BDE8F88F2868F8
:1013F00010F4003FF3D12078C04F10F0020F4FF0EF
:10140000010B4FF0000854D0686810F00C0F14D096
:10141000686800F00C00082803D1686810F4803F69
:101420000BD0206978B3C7F800B0FFF701FD06467E
:10143000286810F0020F12D01DE0286810F0020F8B
:1014400005D02069012802D00120BDE8F88F286866
:10145000616920F0F80040EAC100286029E0FFF748
:10146000E7FC801B022802D90320BDE8F88F28681A
:1014700010F0020FF3D02868616920F0F80040EA0C
:10148000C100286015E0FFE7C7F80080FFF7D0FC37
:101490000646286810F0020F0BD0FFF7C9FC801B2E
:1014A000022802D90320BDE8F88F286810F0020F47
:1014B000F3D1207810F0080F30D09148A169C1B164
:1014C000C0F800B0FFF7B4FC0646686A10F0020FDF
:1014D0000BD1FFF7ADFC801B022802D90320BDE829
:1014E000F88F686A10F0020FF3D0012000F0A2FA22
:1014F00014E0C0F80080FFF79BFC0646686A10F015
:10150000020F0BD0FFF794FC801B022802D90320A6
:10151000BDE8F88F686A10F0020FF3D1207810F060
:10152000040F6FD00026E86910F0805F08D1E869E9
:1015300040F08050E861E86900F08050009001269A
:10154000DFF8C0A1DAF8000010F4807F1BD1DAF8D0
:10155000000040F48070CAF80000FFF769FC814683
:10156000DAF8000010F4807F0DD1FFF761FCA0EBEA
:101570000900642802D90320BDE8F88FDAF80000DA
:1015800010F4807FF1D0E068012816D0D0B1052892
:1015900021D0286A20F001002862286A20F0040087
:1015A0002862E06841F2883A68B3FFF741FC81465F
:1015B000286A10F0020F17D03AE0286A40F00100C4
:1015C0002862EEE7286A20F001002862286A20F0ED
:1015D00004002862E5E7286A40F004002862286ACF
:1015E00040F001002862DCE7FFF722FCA0EB0900D5
:1015F000504502D90320BDE8F88F286A10F0020F89
:10160000F2D015E01AE0FFE7FFF712FC8146286AE6
:1016100010F0020F0CD0FFF70BFCA0EB09005045B7
:1016200002D90320BDE8F88F286A10F0020FF2D12A
:10163000012E03D1E86920F08050E861E069E8B349
:10164000696801F00C0108295ED0022810D0C7F8A3
:101650006080FFF7EDFB0446286810F0007F66D03D
:10166000FFF7E6FB001B022841D90320BDE8F88FF5
:10167000C7F86080FFF7DCFB0646286810F0007FA3
:101680000BD0FFF7D5FB801B022802D90320BDE851
:10169000F88F286810F0007FF3D1206AB0F5803F02
:1016A00005D16868A16820F4003008436860616A69
:1016B000206A0843696821F4741100E037E00843A8
:1016C0006860C7F860B0FFF7B3FB0446286810F005
:1016D000007F2CD1FFF7ACFB001B022802D90320AE
:1016E000BDE8F88F286810F0007FF3D01FE028686D
:1016F00010F0007FB4D11AE0001002400000424216
:10170000800442420070004001280DD06868226ABF
:1017100000F48031914204D1616A00F47010884273
:1017200005D00120BDE8F88F0120BDE8F88F00202A
:10173000BDE8F88F401EB0F1807F01D301207047D3
:101740004FF0E0214861044AF020107000208861C9
:10175000072008610020704723ED00E070B50446C3
:10176000002C04D094F83D00002510B106E00120C3
:1017700070BD84F83C50204600F022F8242084F804
:101780003D002068C16821F40051C160204600F08E
:10179000C5F92068016921F490410161206841691F
:1017A00021F02A0141612068C16841F40051C16003
:1017B0002564202084F83D0084F83E00002070BDA0
:1017C00030B585B00024009401940294039400681D
:1017D0001449884224D11448816941F480418161CF
:1017E000816901F480410491816941F004018161C2
:1017F00080690E4D00F0040004904FF400700090DA
:10180000022001900320039069462846FFF7EEF975
:101810002815CDE90004694628460294FFF7E6F949
:1018200005B030BD00380140001002400008014002
:101830002DE9F84304460E4615461F4694F83D0030
:10184000202802D00220BDE8F883C6B1BDB194F8CB
:101850003C00012816D0012084F83C004FF000091C
:10186000C4F84090212084F83D00FFF7E1FA80465B
:10187000A584E584A068B0F5805F06D007E001206C
:10188000BDE8F8830220BDE8F883206980B13546C1
:10189000002684F83C90E08CB8B1434600228021B9
:1018A0002046009700F09EF920B10320BDE8F883A0
:1018B0000025EEE7A5B12168287848606D1CE08C12
:1018C000401EE084E08C0028E7D1434600224021FE
:1018D0002046009700F086F948B10320BDE8F88360
:1018E00030882168C0F308004860B61CE7E7202074
:1018F00084F83D000020BDE8F883FEE7FEB5002136
:10190000234800910191214A029102609215826060
:1019100001240473017505254FF460220561C2613D
:101920004160FEF7C1FD00B1FEE70226CDE900648B
:101930000424694616480294FEF70EFD00B1FEE746
:101940000327CDE9007669461148FEF705FD00B191
:10195000FEE70C20CDE9000769460D48FEF7FCFCC8
:1019600000B1FEE70D20CDE9000469460848FEF706
:10197000F3FC00B1FEE70E20CDE9000569460448FE
:10198000FEF7EAFC002800D0FEE7FEBD002401407F
:101990003400002070B586B00024214800940194E2
:1019A00002940394816941F080018161816901F0B1
:1019B00080010491816941F010018161816901F028
:1019C00010010491816941F004018161816901F094
:1019D00004010491816941F0080181618069114E1F
:1019E00000F008004FF4707504900022294630463C
:1019F000FFF717FA01200095CDE9010402200390BA
:101A000069463046FFF7F2F84FF44070CDE9000424
:101A1000694605480294FFF7E9F806B070BD00007A
:101A200000100240001C0140000C0140FEE770471E
:101A30007047000081B007494FF4FA520968B1FBC2
:101A4000F2F14843009000BF0098411E0091FAD285
:101A500001B07047300000207047FFF7EFB930B594
:101A600095B028216846FEF786FB14210AA8FEF7E8
:101A700082FB18210FA8FEF77EFB01210804CDE9A7
:101A800000100025029502240491CDE907404FF48F
:101A9000E01009906846FFF737FC00B1FEE70AA99D
:101AA0000F2081E831004FF48060CDE90D0502215F
:101AB0000AA8FFF707FB00B1FEE74FF400401190C2
:101AC0000F940FA8FFF766FA002800D0FEE715B0C4
:101AD00030BD00000E48016841F00101016041681D
:101AE0000C4A11404160016821F4102121F08071FD
:101AF0000160016821F480210160416821F4FE0148
:101B000041604FF41F0181600349C00308607047C2
:101B1000001002400000FFF808ED00E070B5044638
:101B200020680169E26821F4405111430161216993
:101B3000A0680843616901432068C26822F4037207
:101B400022F4A0521143C16020684169A26921F4C6
:101B50004071114341612068A0F18041B1F59C3191
:101B60003AD0FFF775FB00EBC00101EB0010616894
:101B70001B4A8900B0FBF1F3A2FB0353B0FBF1FC5D
:101B80005B096FF018056B430CEB83034FF0320CCD
:101B90000CEB0313A2FB03535B0903F0F005B0FB4E
:101BA000F1F3A2FB03635B0905EB0313B0FBF1F553
:101BB000B0FBF1F0A2FB001040096FF018014843A0
:101BC00005EB80000CEB0010A2FB00102168C0F3B5
:101BD00043101844886070BDFFF74AFBC3E700005C
:101BE0001F85EB512DE9F0410446069D88461746B6
:101BF0001E462068006838EA000020D00020B84265
:101C000027D1B5F1FF3F1CD025B1FFF711F9801B9B
:101C1000A84216D92068C16821F4D071C16020683B
:101C2000416921F001014161202084F83D0084F8E0
:101C30003E00002084F83C000320BDE8F081012034
:101C4000DDE72068006838EA000005D00020B842CF
:101C5000D7D00020BDE8F0810120F8E7FEE702E0E0
:101C600008C8121F08C1002AFAD170477047002027
:101C700001E001C1121F002AFBD1704708B5FFF730
:101C8000E5F8FFF7ECFEFFF785FE8648416941F075
:101C9000010141614069002200F0010000901146FD
:101CA0000B20FFF731F90B20FFF720F9FFF726FE95
:101CB0007E487D490C2201604FF4E13141600021F2
:101CC0008160C160C0E904128161C161FFF746FD16
:101CD00000B1FEE7754905224431A1F17400FEF719
:101CE000DDFCDFF8CCA15320724D8AF80000002201
:101CF00040212846FFF795F8002280212846FFF76B
:101D000090F80022A9152846FFF78BF800226915E4
:101D10002846FFF786F8DFF8A091B425AAF11C0445
:101D200040F6FF7B4FF480714E464846FFF76AF855
:101D300020704FF400713046FFF764F860700023A4
:101D400000955E465A461946206900F0B7F800F043
:101D5000FF080023009532461946606900F0AEF88E
:101D6000C6B20023009540F6C8721946A06900F07B
:101D7000A5F8C7B2607801280BD12079C04300F0E4
:101D8000010020714FF400714846FFF73BF800282E
:101D9000F8D12078012815D0E068B0F57A7F15D801
:101DA00046218AF80010E078411CE170322860D3A7
:101DB0000020E070A078052801D2401CA0704FF4EC
:101DC000807122E053208AF8000052E040F6B831DA
:101DD00088420CD3E178481CE070322949D30020B6
:101DE000E070A07808B1401EA070402122E0A068F9
:101DF00088420FD352218AF80010E178481CE07025
:101E00001E2936D30020E07040212A48FFF701F850
:101E1000802114E040F21451884214D84C218AF8F1
:101E20000010E078411CE1701E2822D30020E070F1
:101E30004FF480711F48FEF7ECFF4FF400711D480E
:101E4000FEF7E7FF15E0002240211A48FEF7E9FF00
:101E5000002280211748FEF7E4FF00224FF4807132
:101E60001448FEF7DEFF00224FF400711148FEF720
:101E7000D8FFA1788AF801108AF802808AF80360F6
:101E80008AF8047021798AF8051045218AF806102D
:101E90005B46072206490548FFF7CAFC0A20FEF701
:101EA00091FE3FE70010024000380140640000202E
:101EB0001C000020001C0140000C014010B5401A1D
:101EC000029CE41A6043511A90FBF1F0184410BDD3
:101ED00000000000000000000102030406070809DA
:101EE0000000000001020304081F00080000002099
:101EF000340000005E1C00083C1F00083400002075
:101F0000CC0400006E1C000800000000000000006F
:101F100000080000000800000000000000000000B1
:101F200000000000000000000000000001000000B0
:0C1F3000100000000000000000A24A04A5
:0400000508000131BD
:00000001FF
