:020000040800F2
:1000000048050020D5000008B9270008772200081D
:1000100000000000000000000000000000000000E0
:10002000000000000000000000000000EB270008B6
:100030000000000000000000D1270008ED270008A4
:10004000E7000008E7000008E7000008E7000008F4
:10005000E7000008E7000008E7000008E7000008E4
:10006000E7000008E7000008E7000008E7000008D4
:10007000E7000008E700000800000000E7000008B3
:1000800000000000D528000800000000000000006B
:10009000E700000800000000E7000008E700000893
:1000A000E7000008E7000008E7000008E700000894
:1000B000DD310008E700000800000000E70000084C
:1000C0000348854600F0D4FB004800475933000838
:1000D000480500200448804704480047FEE7FEE743
:1000E000FEE7FEE7FEE7FEE781280008C100000802
:1000F00030B50B46014600202022012409E00D46C0
:10010000D5409D4205D31D469540491B2546954047
:1001100040191546521E002DF1DC30BD70B500248B
:100120002546002801DA01244042002901DA012590
:100130004942FFF7DDFFAC4200D04042002C00D026
:10014000494270BDF0B51FB40646002082B0054696
:100150004024019100901BE0019922460F46304651
:1001600000F0AEFA049A059B801A994110D310460C
:100170001946224600F094FA361A8F41019722461A
:1001800001200021009F00F08BFA38184D410090AB
:100190002046641E0028DFDC019B00982946324679
:1001A00007B0F0BDD2B201E00270401C491EFBD284
:1001B00070470022F6E710B513460A460446194672
:1001C000FFF7F0FF204610BDF8B502464A40D40FB5
:1001D00042004B0052085B089A4202D2024608468F
:1001E00011464A0023D0C30D4A00DDB2120EAD1AEB
:1001F000202D35DA49020126490AF6058A19002C14
:1002000000D0524220214F1B1146B9402A411018FC
:10021000C20D9A4221D0002C17D0012D08DCDA053E
:10022000801AD20F8019D207DBB200F075FAF8BD40
:10023000DA05801A012340001B06C01880185A42B4
:100240008018CA0F1043490007E04908C20711434C
:10025000DA05801A80194008801800F055FAF8BDB8
:1002600061000122511A001BF7E70122D207514019
:10027000AAE70122D2075040A6E7024670B54A40DD
:10028000D30FDB0740002DD04A002AD0010E140EF8
:10029000000212020919400A520A8418E5010446B4
:1002A0005443000A120A2E045043A4194219200C88
:1002B000C543AA18120C0125AD03521C5219120491
:1002C0007F39240400D0521C104301D44000491E41
:1002D000C2B20C06C0092018401C4008802A02D077
:1002E00003E0002070BD40084000002900DA002033
:1002F000184370BD70B502464A40D50F40004A0011
:10030000ED0740085208002814D0002A12D0C40D6E
:10031000D30D41020120C0055202490A520AE41AD3
:10032000091812187D34914201D3641C00E0490081
:10033000002C01DA002070BD0023914201D3891AFC
:100340000343400849000028F7D100290AD0914210
:1003500002D10121C90705E0914201D2012101E04A
:100360000121C943E005C018401900F0CDF970BD66
:10037000420005D04200120E52428A4201DB0020A8
:100380007047C90508187047F0B507460846584039
:1003900087B0C00F049048000E4659004008490835
:1003A000BC1A884105D2384631461E4617460B46D0
:1003B00002465800400810434CD0300D03904005D1
:1003C0005900400D490D0590401A0290402872DAFC
:1003D00018030121000B09050843019004980092BD
:1003E000002805D0019952420020884100920190D6
:1003F000029840210A1A0199009800F051F9054627
:100400000C466B4607CB00F06CF9C0197141039A9A
:100410000E0D0023D71756401A467A40164344D093
:10042000049A002A2DD0029A012A039A15DC12059B
:10043000C01A914101263605001C7141D20F059E5C
:10044000D2070093019202962A46234600F0AAF9A9
:1004500007B0F0BD38463146FAE71605224A0F4686
:10046000B218C01AB74101210905001C4F410018FC
:100470007F41114618187941E20F10436D1964410C
:1004800013E0E2076D0815436408C2071443039A9A
:1004900001261205C01A91413605001C7141CE0794
:1004A000400830434908C01851412A46234600F00D
:1004B0006CF9CDE7FFE7049801224000C117121A3A
:1004C00000238B4104983146C417381AA141EEE746
:1004D00030B40124E407634030BC55E730B4012454
:1004E000E407614030BC4FE70000E0FFF0B51FB407
:1004F00088B00B990998002448400999C00F490019
:1005000049080991C0070B990090490049080B91CF
:1005100009990898A64608431CD00B990A980843E5
:1005200018D0099801244000420D4800410D099857
:1005300024050003000B204309900B980003000BD7
:1005400020430B9050181C4940180022019014467B
:10055000104605E0002001460DB0F0BD032801DA89
:10056000034600E003239C46C11A0AAE0AE05F007E
:1005700008ADED5B4F00F75B7D430027AA187C4177
:10058000491C5B1E6145F2DD410004AB5A52210457
:10059000120C0A43240C401C0828DFDB019802904F
:1005A0000099704601910090059B049A079906985E
:1005B00000F0F8F8D0E700000DFCFFFFC217C10FF4
:1005C000504010B54018CA079623002100F0A4F847
:1005D00010BDC20F410040020123400ADB05D207D3
:1005E000090EC0187F2901DA00207047962903DC24
:1005F0009623591AC84001E096398840002AF4D061
:10060000404270474A0009030123090B1B051943A7
:10061000094B10B5520D9A4201DA002010BD064B6D
:1006200034339A4203DC9A1A00F04AF810BD0349A9
:100630005118884010BD0000FF030000CDFBFFFFF4
:10064000C20FD207400040080BD0C10D0723DB01C9
:10065000C91840020905400A1143C2084007114366
:100660007047002001467047CB0FDB07490010B5EB
:10067000490802460A4307D00A0D07240903E4018A
:10068000090B121B002A01DC002010BDC900440F19
:100690000C43C100E018D205801800F035F810BDF9
:1006A00010B5202A04DB0146203A9140002010BDFD
:1006B000914020239C1A0346E3401943904010BD0B
:1006C00010B5202A04DB0846203AD040002110BD96
:1006D0000B46D340D0402024A21A9140084319462B
:1006E00010BD10B5202A06DBCB170846203A104172
:1006F000C1170B4306E00B461341D0402024A21A39
:1007000091400843194610BD002904DA401C4900F5
:1007100001D140084000704770B40024050C05D199
:100720001024000402D1002921D01124050E01D18A
:1007300000020834050F01D10001241D850F01D1ED
:100740008000A41C002801DB4000641C002908D0A4
:1007500020252E1B0D46F540A14000D00121294344
:10076000084301061B1B000ADB1D02D5002070BCDC
:100770007047DB05181880180029F8DA401C49007A
:10078000F5D170BC40084000704710B5002B08DA66
:100790000024401C614192185B411A4301D140087A
:1007A000400010BDF0B51FB482B005460C0003D068
:1007B000084602F01BFD02E002F018FD2030024660
:1007C000009021462846FFF76BFF049B059A0446DC
:1007D0000F4618431143084314D0184610431BD04A
:1007E000009840210A1A18460599FFF769FF054647
:1007F0000E46009A05990498FFF752FF084305D06A
:10080000012004E02046394607B0F0BD0020C117A2
:1008100005430E432C43374300990E986305401A55
:100820007905E40A00220C43FD0A0A3002D50020B3
:100830000146E9E70105101969410C9C0D9D00195D
:100840006941FFF7A2FFDFE710B5002904DB0124AF
:10085000E40740428C412146002B04DB1C46012367
:10086000DB075242A341994200D1904210BD0000E3
:10087000064C0125064E05E0E36807CC2B430C3CF3
:1008800098471034B442F7D3FFF71EFC64350008D4
:1008900084350008F8B578251A4C0095B4266068B0
:1008A0003C23301A3246002102F0BAFD801D20613F
:1008B0000095A0683C23301AB422002102F0B0FD5C
:1008C000801D60610095E0683C23301AB42200214D
:1008D00002F0A6FDA061217C062002F0B5FD217D7D
:1008E000072002F0B1FD217E082002F0ADFDA078C6
:1008F000012804D00021092002F0A6FDF8BD5A21EC
:10090000F9E700000000002030B4014620314A79A8
:100910000023022A05D00422C2630B7130BC0120DF
:100920007047026814680E25AC43146002681468AE
:10093000640864001460446C1C22144001252A469B
:10094000006CA24042604D710B7130BC184670477C
:1009500070B50024014620314A79022A03D00421CF
:10096000C163012418E0026813680E25AB431360CD
:10097000026813685B085B001360436C1C22134021
:1009800001252A469A40036C5A604D7100220A7173
:10099000816B002900D08847204670BD70B50446A1
:1009A00000F0C6F80546601C02D004480078241800
:1009B00000F0BEF8401BA042FAD370BD2400002016
:1009C000F0B400220B68002B6FD001270B68974012
:1009D0003B40002B6AD00C79A407A40F012C01D056
:1009E000022C10D1856854000326A640B543CE687A
:1009F000A6402E4386604468BC430D79ED06ED0F9A
:100A00009540254345600C79E443A40708D0C568A8
:100A100054000326A640B5438E68A6402E43C66008
:100A20000C79A407A40F022C0CD1D408A400271819
:100A30003D6A5407E40E0F26A640B5430E69A64052
:100A40002E433E62056854000326A640B5430E7946
:100A5000B607B60FA6402E4306604C68A403A40F49
:100A60004BD0294C656B0126354365639508274CAF
:100A7000AD002F19BD689407240F0F26A640B5437B
:100A800005263607B04201D1002616E0204EB042BE
:100A900001D1012611E01F4EB04201D102260CE027
:100AA0001D4EB04203D1032607E02BE025E01B4E8C
:100AB000B04201D1052600E00626A6402E43BE60C6
:100AC000174D2C689C434E68F60300D51C432C60E0
:100AD0006C689C434E68B60300D51C436C60AC68E0
:100AE0009C434E68F60200D51C43AC60EC689C4306
:100AF0004E68B60200D51C43EC60521C0B68D34014
:100B000000D062E7F0BC70470010024000000140D6
:100B10000004005000080050000C0050001C005061
:100B200000040140002A01D0816170478162704752
:100B300001488068704700002400002070B402461D
:100B400040325378202B02D070BC022070471378BB
:100B5000012B1AD0012414702423537003681D68DC
:100B6000A5431D6003681D682603B5431D60036827
:100B70001D680D431D60006801682143016020204D
:100B800050700020107070BC704770BC022070471D
:100B900070B4024640325378202B02D070BC022041
:100BA00070471378012B19D0012515702423537039
:100BB00003681C68AC431C6003681C680F2636027F
:100BC000B4430902214319600068016829430160A8
:100BD000202050700020107070BC704770BC022044
:100BE0007047000070B50446002C06D025464035FD
:100BF00068780026002802D005E0012070BD2E7024
:100C0000204600F061FA24206870206801684908D5
:100C1000490001600F216068090688432168086166
:100C2000206882680121C9038A438260E068012844
:100C300009D02122A0689202104322689060E068E7
:100C4000022805D008E0A068226808439060F6E713
:100C500001202268C0025060206842680F4B1A438E
:100C600042602068C2688A43C260616920690843A3
:100C7000A169090208432168C860216AE069084344
:100C800021680860206801680122114301606664E0
:100C9000202068702663AE70002070BD00800002C6
:100CA000FFB581B00446254640356878202802D03B
:100CB000022005B0F0BD2878012810D0012028704E
:100CC000FFF736FF064601221923D103204600967E
:100CD00001F0B6FB002805D0012005B0F0BD0220D0
:100CE00005B0F0BD222068701020A870002767644E
:100CF00003986062049860856763618D3B48FF29B3
:100D000009D9FF222285012300901B062046029963
:100D100001F064FB0AE0618D21850090208D0123A4
:100D2000C2B25B062046029901F058FB608D002894
:100D300043D0324620460A9901F0B2FB002802D087
:100D4000012005B0F0BD2068406A616A0870606AE1
:100D5000401C6062208D401E80B22085618D491E3E
:100D60006185618D002925D0002823D100960022BD
:100D7000802120460A9B01F063FB002802D001205D
:100D800005B0F0BD608DFF2809D9FF22228501231F
:100D90001B0600972046029901F020FB0AE0608DB7
:100DA00020850097208D0123C2B25B062046029960
:100DB00001F014FB608D0028BBD1324620460A9911
:100DC00001F0B8FB002802D0012005B0F0BD20687A
:100DD0002021C16120684268054B1A404260697059
:100DE000AF702F70002005B0F0BD0000002400801F
:100DF00000E800FEFFB581B004462546403568781E
:100E0000202802D0022005B0F0BD2878012810D09B
:100E100001202870FFF78CFE064601221923D1031A
:100E20002046009601F00CFB002805D0012005B0FB
:100E3000F0BD022005B0F0BD212068701020A87020
:100E40000027676403986062049860856763618D1A
:100E50003A48FF2908D9FF222285C3020090204684
:100E6000029901F0BBFA0AE0618D21850090208D86
:100E70000123C2B25B062046029901F0AFFA608DF1
:100E8000002843D0324620460A9901F07EFB002814
:100E900002D0012005B0F0BD606A21680078886248
:100EA000606A401C6062608D401E6085208D401E1F
:100EB00080B22085618D002925D0002823D100969D
:100EC0000022802120460A9B01F0BAFA002802D0B5
:100ED000012005B0F0BD608DFF2809D9FF222285D1
:100EE00001231B0600972046029901F077FA0AE0D9
:100EF000608D20850097208D0123C2B25B062046BD
:100F0000029901F06BFA608D0028BBD13246204671
:100F10000A9901F00FFB002802D0012005B0F0BDB6
:100F200020682021C16120684268054B1A40426058
:100F30006970AF702F70002005B0F0BD00200080F8
:100F400000E800FEFFB583B00C9F044625464035FF
:100F50006878202802D0022007B0F0BD002F16D0FC
:100F60000D98002813D02878012816D00120287069
:100F7000FFF7DEFD064601221923D1032046009625
:100F800001F05EFA00280BD0012007B0F0BD01206F
:100F900040026064012007B0F0BD022007B0F0BD40
:100FA000212068704020A8700020606467620D995D
:100FB000618560630E98009001962046069B059A15
:100FC000049901F0D1F9002804D0002028700120F4
:100FD00007B0F0BD608DFF27FF280AD93A46278564
:100FE0000020012300901B062046049901F0F6F929
:100FF0000BE0608D208500200090208D0123C2B27F
:101000005B062046049901F0E9F9002732462046A4
:101010000E9901F0BAFA002802D0012007B0F0BD05
:10102000606A216800788862606A401C6062608D36
:10103000401E6085208D401E80B22085618D002974
:1010400025D0002823D100960022802120460E9B27
:1010500001F0F6F9002802D0012007B0F0BD608D44
:10106000FF2809D9FF22228501231B06009720466D
:10107000049901F0B3F90AE0608D20850097208D76
:101080000123C2B25B062046049901F0A7F9608DE6
:101090000028BBD1324620460E9901F04BFA0028B9
:1010A00002D0012007B0F0BD20682021C161206876
:1010B0004268044B1A4042606970AF702F70002084
:1010C00007B0F0BD00E800FE10B586B0044614215C
:1010D0006846FFF76EF81149206888421BD1104C12
:1010E000E16A02200143E162E16A014003200591C7
:1010F0000002009012200190012002900320039032
:101100000420049069460748FFF75AFCA06B0121B0
:1011100049050843A06306B010BD0000005400401C
:1011200000100240000400500248816802788918CB
:10113000816070472400002010B500240748016832
:10114000402211430160002000F00AF8002801D07D
:10115000012401E000F028F8204610BD00200240E4
:1011600070B504460E4D7D202978C000FEF7C0FF03
:1011700001460C480068FEF7BBFF00F03BFD00286D
:1011800001D0012070BD042C07D200222146501E40
:1011900000F022F86C60002070BD012070BD0000DE
:1011A00024000020300000200448416B012211433C
:1011B0004163816B02041143816370470010024058
:1011C000002805DBC106C90E0120884001490860DE
:1011D0007047000000E100E08207D30EFF229A4032
:1011E0008907090E9940002808DB830809489B00FD
:1011F0001818036893430B43036070470007000F00
:101200000838830804489B001818C36993430B43AC
:10121000C361704700E400E000ED00E0F8B504466B
:10122000002620785C4D80067AD55C48806BC00033
:1012300005D45A48816B0204114381630126584842
:101240000168C90517D40068FF21013108435449DA
:101250000860FFF76DFC074651480068C0050AD4D6
:10126000FFF766FCC01B642801D90320F8BD4C4879
:101270000068C005F4D5494F3868032109050840C6
:1012800062681140814208D09003800F032804D186
:101290003868800301D50120F8BD286903210904BD
:1012A0000840002824D00A40824221D020788006BD
:1012B0001ED5286988432A690121C9040A432A6185
:1012C0002A698A432A612861C00511D5FFF730FCDD
:1012D0000090286980050BD4FFF72AFC0099411A79
:1012E0003048814201D90320F8BD28698005F3D533
:1012F00060688103890F032905D13A6809058A438B
:10130000084002433A6028690322616812041140D0
:1013100008432861012E03D1B96B30078143B963BB
:101320002078C00705D0E868A168800880000843DD
:10133000E8602078800705D5E8680C218843E168DB
:101340000843E8602078400706D5E8680321890251
:10135000884321690843E8602078000706D5E868DB
:1013600003210903884361690843E8602078400647
:1013700006D5E868012189068843E1690843E860E9
:101380002078000606D5E868032189048843A1690E
:101390000843E8600020F8BD401002400010024001
:1013A0000070004088130000F8B504460D46002C7C
:1013B0001BD076480068C007C00FA8421CD2734FEC
:1013C00038684008400028433860FFF7B1FB064604
:1013D0003868C007C00FA8420ED0FFF7A9FB811BD9
:1013E0006B48814203D90320F8BD0120F8BD38685D
:1013F000C007C00FA842F0D12078664F800705D5FE
:10140000F868F0218843A1680843F8602078C00795
:1014100072D06068022808D003280BD001280ED0B3
:101420003968890510D40120F8BD396889030BD4C7
:101430000120F8BD3968890106D40120F8BD39685A
:10144000490701D40120F8BDF968890889000143E2
:10145000F960FFF76DFB0646606802280FD003288D
:1014600020D0012831D0F8680007800F44D0FFF762
:101470005FFB811B464881423AD90320F8BDF868DA
:101480000007800F022837D0FFF752FB811B40482E
:10149000814201D90320F8BDF8680007800F0228B7
:1014A000F2D129E0F8680007800F032824D0FFF765
:1014B0003FFB811B3648814201D90320F8BDF86803
:1014C0000007800F0328F2D116E0F8680007800FAC
:1014D000012811D0FFF72CFB811B2D48814201D937
:1014E0000320F8BDF8680007800F0128F2D103E05F
:1014F000F8680007800FBAD124480168C907C90FEE
:10150000A9421CD9006821494008400028430860CE
:10151000FFF70EFB06461D480068C007C00FA84233
:101520000DD0FFF705FB811B1948814201D903202B
:10153000F8BD16480068C007C00FA842F1D1207856
:10154000400706D5F868072109028843E168084387
:10155000F8602078000707D5F8680721C90288439A
:101560002169C9000843F86000F042F8F9680A4AA6
:101570000906090F515CC84008490860084800681E
:10158000FFF7EEFD0028D3D1F8BD00000020024097
:101590008813000000100240403500083000002091
:1015A000280000200148006870470000300000203B
:1015B00000B5FFF7F7FF0449C968044A4905490F18
:1015C000515CC84000BD00000010024059350008C1
:1015D00000B5FFF7E7FF0449C968044A8904490FC9
:1015E000515CC84000BD00000010024059350008A1
:1015F00070B5214EF2680C21104608401F498B003F
:1016000004280CD04D00082810D00C2810D0706889
:101610000004410F491C0120C003884070BD3068A0
:10162000C00601D5084670BD184670BD284670BD7D
:101630009002134C000F205C1202940F641CF2689D
:10164000D20307D5294601F0E8FD22460023FEF724
:1016500079FD70BD3268D20606D501F0DEFD224666
:101660000023FEF76FFD70BD194601F0D6FD22463E
:101670000023FEF767FD70BD0010024000093D0029
:1016800050350008F0B583B00446002C0FD0FE4E54
:10169000F5680C200540F768012000040740207819
:1016A000C0075BD0082D09D00C2D03D00FE001201E
:1016B00003B0F0BD01200004874208D130688003E8
:1016C0004CD56068002849D1012003B0F0BD01204D
:1016D00061680004814203D131680143316015E043
:1016E000052301221B049204994206D1316811435B
:1016F000316031680143316008E031688143316015
:101700003168014001913068904330606068002882
:1017100012D0FFF70DFA0290306880031ED4FFF755
:1017200007FA0299401A642802D9032003B0F0BDD9
:1017300030688003F3D511E0FFF7FAF902903068C2
:1017400080030BD5FFF7F4F90299401A642802D9F7
:10175000032003B0F0BD30688003F3D42078800705
:1017600061D5E0680923042D17D00C2D01D1002F7D
:1017700013D0002842D03168994301433160FFF70C
:10178000D7F90746306840072FD4FFF7D1F9C01BBF
:10179000022827D9032003B0F0BD3168490701D5DD
:1017A00000281CD071681F22120291432269120284
:1017B000114371603168994301433160FFF718FFAD
:1017C000F16809060A0FB149895CC840B049086050
:1017D000B0480068FFF7C4FC0028DCD123E00120FA
:1017E00003B0F0BD30684007CFD570681F210902F3
:1017F0008843216909020843706014E0306840089A
:1018000040003060FFF794F90746306840070AD57A
:10181000FFF78EF9C01B022802D9032003B0F0BDE8
:1018200030684007F4D42078C0066BD5002D15D061
:10183000E069002850D03068FF2101310843306052
:10184000FFF776F907463068800536D4FFF770F960
:10185000C01B02282ED9032003B0F0BD30688005DC
:1018600002D5E069002822D0706807214903884327
:10187000616A084370607068218C0002000A0906E2
:1018800008437060606A410B491C0120C003884016
:10189000F16809060A0F7D49895CC8407C490860E7
:1018A0007C480068FFF75CFC0028D5D12AE00120C5
:1018B00003B0F0BD30688005C8D5706807214903C2
:1018C0008843616A084370607068218C0002000AD6
:1018D00009060843706015E03068FF210131884334
:1018E0003060FFF725F90746306880050AD5FFF715
:1018F0001FF9C01B022802D9032003B0F0BD3068D5
:101900008005F4D42078644F00072FD56069002843
:1019100016D03869012108433861FFF709F90290B0
:101920003869800722D4FFF703F90299401A022888
:1019300002D9032003B0F0BD38698007F3D515E064
:101940003869400840003861FFF7F2F802903869C2
:1019500080070BD5FFF7ECF80299401A022802D94C
:10196000032003B0F0BD38698007F3D42078400726
:1019700076D500200190B06BC00006D4B06B012179
:1019800009070843B0630120019044480168C90574
:1019900019D40068FF210131084340490860FFF76E
:1019A000C7F802903D480068C0050CD4FFF7C0F8A6
:1019B0000299401A642802D9032003B0F0BD3748C9
:1019C0000068C005F2D5FF20A2680130824203D131
:1019D0003969014339611BE001218902002A0AD0DB
:1019E00005231B029A420DD13A690A433A613969CB
:1019F000014339610CE03A6982433A6138698843AE
:101A0000386105E03A6982433A6138698843386150
:101A1000A068002813D0FFF78BF802903869800582
:101A200022D4FFF785F80299411A1D48814202D954
:101A3000032003B0F0BD38698005F2D514E0FFF74C
:101A400077F80290386980050ED5FFF771F80146E6
:101A50000298091A1248814203D9032003B0F0BD4D
:101A60000AE038698005F0D40198012804D1B06BF0
:101A7000012109078843B0632078800649D50948C9
:101A8000A169431400290FE000100240403500080E
:101A9000300000202800002040100240007000406C
:101AA00088130000000001401BD0B26801210A43E6
:101AB000B260726B0A437263016A19430162FFF7F5
:101AC00037F80746B068800723D4FFF731F8C01B0A
:101AD000022802D9032003B0F0BDB0688007F4D516
:101AE00017E0B16849084900B160016A9943016291
:101AF000FFF71EF80746B06880070AD5FFF718F809
:101B0000C01B022802D9032003B0F0BDB0688007D3
:101B1000F4D4A06A002869D00C2D4CD001252D06E4
:101B2000022810D03068A8433060FFF701F804465F
:101B3000306880015AD5FEF7FBFF001B022836D91A
:101B4000032003B0F0BD3068A8433060FEF7F0FF1B
:101B50000746306880010AD5FEF7EAFFC01B02285D
:101B600002D9032003B0F0BD30688001F4D4216BAA
:101B7000E06AF2680843616BFD231B049A4311433A
:101B80000843F060306828433060FEF7D1FF044618
:101B9000306880012AD4FEF7CBFF001B022802D94F
:101BA000032003B0F0BD30688001F4D51EE030683A
:101BB0008001C0D41AE0012815D0F0680121090481
:101BC000E26A014091420BD10F218904226B01404E
:101BD000914205D1032189050840616B884205D0F7
:101BE000012003B0F0BD012003B0F0BD002003B020
:101BF000F0BD000010B40B49401E884202D910BC51
:101C0000012070470849486108480723C269120249
:101C1000120A4C042243C261002088610B6110BC8F
:101C200070470000FFFFFF0000E000E004ED00E06F
:101C3000F0B402462032137E012B1FD00126167607
:101C40000223537603685D689C687027BD430F6864
:101C50002F435F600068B307984205D0094B984254
:101C600002D0094B984204D180239C434968214308
:101C70008160567600201076F0BC7047F0BC0220E0
:101C800070470000000801400014014070B505468F
:101C9000002D05D02C462034607E002802D006E0BE
:101CA000012070BD00202076284600F00FF80220A9
:101CB0006076291D286800F015FE0120A077A07627
:101CC000E076207760776076002070BD10B5006800
:101CD000084988420CD10848816B10221143816366
:101CE000002211461120FFF777FA1120FFF768FA5A
:101CF00010BD00000010004000100240704770B599
:101D00000446206801690025C9438907002916DBBC
:101D1000C168C943890712D4E91E016101202076F8
:101D200020688069800703D02046FFF7E7FF05E0C1
:101D3000204600F07BF8204600F079F825762068F0
:101D40000169C943490718D4C168C943490714D474
:101D50000421C94301610220207620688069800542
:101D6000800F03D02046FFF7C9FF05E0204600F0B2
:101D70005DF8204600F05BF8257620680169C943CC
:101D8000090717D4C168C943090713D40821C943F7
:101D90000161042020762068C069800703D02046B6
:101DA000FFF7ACFF05E0204600F040F8204600F0C9
:101DB0003EF8257620680169C943C90618D4C16870
:101DC000C943C90614D41021C943016108202076F3
:101DD0002068C0698005800F03D02046FFF78EFF82
:101DE00005E0204600F022F8204600F020F8257695
:101DF00020680169C943C90708D1C168C943C90737
:101E000004D1891E0161204600F012F820680169A2
:101E1000C943490609D4C168C943490605D44021CC
:101E2000C9430161204600F004F870BD7047704757
:101E3000704770477047704770470000F8B5044618
:101E40002268D06911689368A04D0540002D09D122
:101E5000860607D58E0605D5616E002901D020467D
:101E60008847F8BD2026002D74D0DF07984DFF0F5E
:101E7000BC460D402F437CD02546C7078035002F38
:101E800006D0CF0504D5012717622A683A432A6095
:101E9000820708D5DA0706D0276802223A622A6844
:101EA00004273A432A60420708D5DA0706D0236898
:101EB00004221A622A6802231A432A6002070AD5FA
:101EC0000A46324063461A4305D0236808221A6244
:101ED0002B6813432B60020508D54A0106D5012261
:101EE0002368D2021A622A6832432A602A68002ACA
:101EF000B7D0800606D5880604D5616E002901D0CA
:101F000020468847286821688968490602D4282124
:101F1000084228D0204600F06DFE206881684906FE
:101F20001DD5EFF31081012282F3108882684023CF
:101F30009A43826081F31088206F00280BD0654996
:101F40008163206FFEF704FD00288AD0206F816B2B
:101F50008847F8BD0DE02046FFF76EFFF8BD20462C
:101F6000FFF76AFFF8BD2046FFF766FF00202860F4
:101F7000F8BD256E012D7CD1C5067AD5CD0678D564
:101F800010271762206881682546490640350029D8
:101F900049DA226F1168496889B20029E8D02B8B91
:101FA0008B42E5D9698311680968890633D4EFF358
:101FB0001081012282F3108802683B019A4302607B
:101FC00081F31088EFF31081012080F310882068DE
:101FD000826852085200826081F31088EFF310810A
:101FE000012080F310882068836840229343836037
:101FF00081F31088E66700202066EFF3108101204E
:1020000080F3108820680368BB43036081F3108865
:10201000206FFEF779FC288B698B401A81B220462D
:10202000FFF708FFF8BD298B6A8B891A89B26A8B82
:10203000002AF7D00029F5D0EFF31082012383F3B3
:1020400010880368FF252135AB43036082F31088B5
:10205000EFF31082012080F31088206883685B080A
:102060005B00836082F31088E6670020206660666C
:1020700000E00EE0EFF31082012080F3108820686A
:102080000368BB43036082F310882046FFF7D2FE4B
:10209000F8BDC50208D55B0206D501200005106217
:1020A0002046FFF7C8FEF8BD020607D50A0605D58B
:1020B000A16E0029F7D020468847F8BD4006FCD520
:1020C0004806FAD5204600F0C4FDF8BD0F08000010
:1020D00020010004E12B000810B50446002C03D0B9
:1020E000A06F002802D007E0012010BD002174205D
:1020F0000155204600F028F82420A06720680168D8
:10210000490849000160204600F060FE012819D00E
:10211000606A002802D0204600F0C8FC20684168B0
:102120000922D20291434160206881682A229143AA
:10213000816020680168012211430160204600F09F
:102140001BFD10BD012010BD10B586B00446142142
:102150006846FEF72EF815492068884223D11448B6
:10216000816B0122520411438163C16A0122114330
:10217000C162C06A6946104005900C2000900220A0
:102180000190002002900320039004200490052079
:102190000007FEF715FC002211461C20FFF71CF873
:1021A0001C20FFF70DF806B010BD000000440040F1
:1021B0000010024070B5C36F202B01D0022070BD0B
:1021C00000290AD0002A08D0012483682403A342EE
:1021D00009D10369002B02D005E0012070BDCB07B7
:1021E00001D0012070BD034660331C7D012C19D045
:1021F00001241C75002303660B4C0368A3420ED018
:102200005C6824020BD5EFF31084012585F3108858
:102210001D680126B60635431D6084F3108800F062
:1022200001FF70BD022070BD0048004010B500687D
:102230000D49884216D10D48817945290DD10146B5
:1022400002781C390A7042784A7082784A60C278F3
:102250008A600279CA60407988700722034904487D
:10226000FFF7A8FF10BD0000004400401C00002044
:10227000C00000207047FEE701688A69D2439207D8
:1022800001D400228A6200688169C943C90703D06A
:10229000816901221143816170470000F8B504464D
:1022A0000E46174620688169C943C9063FD4416874
:1022B000890104D4416801229203114341602068DE
:1022C00080692546C0438006403500280DDA701C21
:1022D00006D0FEF72DFCC01BB0421ED8002E1CD02D
:1022E00020688069C0438006F1D420681021C16154
:1022F00020682026C6612046FFF7BEFF206841689F
:102300000C4A11404160606C0421084360646E70A7
:102310000020A87028700120F8BD616C20200143C6
:10232000616468700020A87028700120F8BD00204A
:10233000F8BD000000E800FE11B583B0642401235D
:1023400003AA802107480094FEF754FD012301AA47
:10235000812104480094FEF7A3FC6846007904B08C
:1023600010BD000034000020F8B5079F0446164653
:102370001D4619480090C302EAB2204600F02EF82C
:102380003A462046069900F000F9002801D00120C5
:10239000F8BD2846F5B201280BD02168300A8862C2
:1023A0003A462046069900F0F0F8002804D00120B3
:1023B000F8BD2068856201E02068856200970022F0
:1023C00080212046069B00F03BF8002801D0012028
:1023D000F8BD0020F8BD000000200080F0B4049C8F
:1023E00000684568660D8905890D054F1204114383
:1023F0003E431943B54321430D434560F0BC70474C
:10240000FF63FF031CB56A46107151710A200090EA
:10241000022301AA80210248FEF7ECFC1CBD00004B
:10242000340000200EB5642301920293009102460D
:10243000012380210148FEF785FD0EBD34000020F8
:10244000F8B504460E4617461D4620688169304699
:10245000884316D00020B84211D1681C07D0FEF77F
:1024600067FB0699401AA8420DD8002D0BD02068B2
:1024700081693046884311D00020B842EDD0002059
:10248000F8BD0120E7E7616C20200143616440341E
:1024900060700020A07020700120F8BD0120ECE7E2
:1024A000F8B504460E46174620688069C0434007C9
:1024B00033D5254640353A4631462046FFF7EEFEF5
:1024C000002801D00120F8BD20688069C043800643
:1024D00017D420688169C943490704D4218D002994
:1024E00001D00020F8BD2021C16120684268104B56
:1024F0001A404260002060646970A8702870012052
:10250000F8BDFEF715FBC01BB04208D8002E06D060
:1025100020688069C0434007CDD40020F8BD606CBE
:102520002021084360646970002028700120F8BDF4
:1025300000E800FE70B504460D4616462068806926
:10254000C043800614D5324629462046FFF7A6FE32
:10255000002801D0012070BDFEF7EAFA801BA842D6
:1025600008D8002D06D020688069C0438006EAD4D0
:10257000002070BD616C20200143616440346070B4
:102580000020A0702070012070BD70B504460D467B
:10259000164620688069C043800716D53246294612
:1025A0002046FFF77BFE002801D0012070BD681C8B
:1025B00006D0FEF7BDFA801BA84208D8002D06D031
:1025C00020688069C0438007E8D4002070BD616C3A
:1025D000202001436164403460700020A0702070AE
:1025E000012070BDF0B587B014216846FDF7E1FD0C
:1025F0001748C16A01252943C162C16A2940059172
:10260000C26A02210A43C262C06A052708403F0726
:102610000590002210213846FEF784FAAE0200220F
:1026200031460C48FEF77EFA1020002400900294F8
:102630006946019503943846FEF7C2F9029469464B
:102640000448009601950394FEF7BAF907B0F0BD6F
:10265000001002400004005010B5124810490160FB
:102660001149416000218160016141618161012264
:10267000C161C2600162FEF7B5FA002800D0FEE732
:1026800000210848FEF75AFA002800D0FEE7002192
:102690000448FEF77DFA002800D0FEE710BD0000D8
:1026A0000054004034000020BB7C700010B50C4882
:1026B0000A490160E1214902416000218160C16055
:1026C00001618161C1610C22016242614162FFF7D7
:1026D00003FD002800D0FEE710BD000000440040CC
:1026E000C0000020F8B53C25324C0626207846284C
:1026F00010D1E9B2012000F0A7FEE9B2042000F0F9
:10270000A3FEFEF7C7F86078301AFEF747F9ED1C14
:10271000782DEBDDB42505272078462817D1E9B2BE
:10272000032000F091FEE9B2052000F08DFEE9B231
:10273000002000F089FEE9B2022000F085FEFEF7DD
:10274000A9F86078381AFEF729F9ED1EE4D5782546
:102750002078462810D1E9B2012000F075FEE9B2D8
:10276000042000F071FEFEF795F86078301AFEF74D
:1027700015F9ED1E3C2DEBDA00252078462818D1FE
:10278000E9B2032000F060FEE9B2052000F05CFE33
:10279000E9B2002000F058FEE9B2022000F054FE39
:1027A000FEF778F86078381AFEF7F8F8ED1CB42DCB
:1027B000E3DDF8BD000000207047000010B500F018
:1027C0003AFE024800F076FE10BD000000004842CC
:1027D000704710B50024E0B25A2100F035FE641CA9
:1027E000062CF8DBFEF756F810BD704710B5FEF763
:1027F0009BFC10BD10B59CB038216846FDF7D9FC94
:10280000142116A8FDF7D5FC20210EA8FDF7D1FC58
:102810001A4801680322D2029143C2148918016048
:102820000220009001210A90039140040C900001C5
:10283000102100240D900B9404916846FEF722FFAE
:10284000002800D0FEE70F20169003201790189460
:10285000199401211A9416A8FEF7A6FD002800D0AD
:10286000FEE70A2013940E9011940EA8FEF7D6FCF2
:10287000002800D0FEE71CB010BD00000070004032
:1028800010480168821511430160C1680E4A114069
:10289000C16001680D4A1140016081684908490022
:1028A000816001680122920491430160C168FD22A8
:1028B00012049143C160002101610549C003886091
:1028C00070470000001002400C40FF88F6FFF6FE43
:1028D00000ED00E010B50248FFF711FA10BD00004E
:1028E0008000002070B4026801239B07114C124D38
:1028F000984203D0A04201D0A84203D17026B2432F
:102900004E683243984203D0A04201D0A84204D17D
:1029100003231B029A43CB681A4380239A430B6913
:102920001A4302608A68C2620968816201214161BA
:1029300070BC70470008014000140140F8B52C4CF1
:102940003C2520784C280CD1E9B2012000F07CFD18
:10295000E9B2042000F078FDFDF79CFFAD1C782D56
:10296000EFDD0025B42620784C2815D1E9B20320EC
:1029700000F06AFDE9B2052000F066FD771BF9B2B0
:10298000002000F061FDF9B2022000F05DFDFDF7CE
:1029900081FFAD1CB42DE6DD782520784C280CD1C4
:1029A000E9B2012000F050FDE9B2042000F04CFD36
:1029B000FDF770FFAD1E3C2DEFDAB42520784C28D2
:1029C00014D1E9B2032000F03FFDE9B2052000F088
:1029D0003BFD771BF9B2002000F036FDF9B2022072
:1029E00000F032FDFDF756FFAD1EE7D5F8BD000043
:1029F00000000020F8B52C4C3C25207852280CD142
:102A0000E9B2012000F020FDE9B2042000F01CFD35
:102A1000FDF740FFAD1C782DEFDD0025B4262078B2
:102A2000522815D1771BF9B2032000F00DFDF9B241
:102A3000052000F009FDE9B2002000F005FDE9B233
:102A4000022000F001FDFDF725FFAD1CB42DE6DDF1
:102A50007825207852280CD1E9B2012000F0F4FC4E
:102A6000E9B2042000F0F0FCFDF714FFAD1E3C2D90
:102A7000EFDAB4252078522814D1771BF9B203205D
:102A800000F0E2FCF9B2052000F0DEFCE9B2002023
:102A900000F0DAFCE9B2022000F0D6FCFDF7FAFE05
:102AA000AD1EE7D5F8BD00000000002010B4818CF9
:102AB000C90707D001684A6801235B049A43836A07
:102AC0001A434A60818C890707D501684A68012347
:102AD0001B049A43C36A1A434A60818C490707D58D
:102AE00001684A6801239B049A43036B1A434A60B6
:102AF000818C090707D501684A680123DB039A43E3
:102B0000436B1A434A60818CC90607D501688A68FD
:102B100001231B039A43836B1A438A60818C8906C5
:102B200007D501688A6801235B039A43C36B1A4384
:102B30008A60818C490612D501684B680122120512
:102B4000046C934323434B60016C914207D10168AD
:102B50004A6803235B059A43436C1A434A60818C9D
:102B6000090607D501684A680123DB04806C9A4393
:102B700002434A6010BC7047F8B504460025802027
:102B80000551FDF7D5FF074620680068134E000782
:102B90000BD501213B46002249052046009600F056
:102BA000A1FA002801D00320F8BD20680068400782
:102BB0000BD501213B46002289052046009600F0F6
:102BC00091FA002801D00320F8BD2020A067E0671B
:102BD0002566603425750020F8BD0000FFFFFF0169
:102BE00010B5806A0022014640314A834A82FFF7CD
:102BF00023F910BD10B4EFF31082012181F3108886
:102C000001680B68FF242134A3430B6082F3108812
:102C1000EFF31082012181F3108801688B685B0853
:102C20005B008B6082F31088016E01290AD1EFF3FB
:102C3000108281F3108801680B681024A3430B6095
:102C400082F310882021C16700210166416610BC13
:102C5000704710B5EFF31082012181F310880168ED
:102C60000B684024A3430B6082F310882021816706
:102C700000218166FFF7FEFA10BD70B501464031B4
:102C80008B8BC46F0268222C04D090690821084302
:102C9000906170BD526A446D1A402280426D921C50
:102CA00042654A8B521E4A834A8B002AF1D1EFF3C8
:102CB0001083012282F3108802681468FF252135F1
:102CC000AC43146083F31088EFF31083012282F386
:102CD00010880268946864086400946083F3108824
:102CE0002022C26700224266036E012B02D0FFF74A
:102CF0009DFA70BD0266EFF31083012282F3108803
:102D0000026815681024A543156083F310880268D3
:102D1000D369DB43DB0600D41462098BFFF78AF822
:102D200070BD70B5014640318B8BC46F0268222C98
:102D300004D0906908210843906170BD526A1A401E
:102D4000436D1A70426D521C42654A8B521E4A8373
:102D50004A8B002AF1D1EFF31083012282F310880D
:102D600002681468FF252135AC43146083F3108892
:102D7000EFF31083012282F31088026894686408DC
:102D80006400946083F310882022C26700224266A8
:102D9000036E012B02D0FFF749FA70BD0266EFF314
:102DA0001083012282F31088026815681024A5435D
:102DB000156083F310880268D369DB43DB0600D417
:102DC0001462098BFFF736F870BD0000F8B50446B1
:102DD00000258B4F20682269A168E369114362696D
:102DE0001A4311430268874B1A400A430260206865
:102DF0004168032212039143E26811434160A069D4
:102E00002168B94201D0226A10438A680B231B0251
:102E10009A4302438A607C4922687C488A4213D1E3
:102E2000C0688007800F07D0012809D0022805D08C
:102E3000032807D0102138E0012136E0022134E0D8
:102E4000042132E0082130E071498A4213D1C06880
:102E50000C21084007D0042809D0082805D00C28E8
:102E600007D0102121E000211FE002211DE00421F4
:102E70001BE0082119E0BA4216D1C068032189027B
:102E800008400BD001218902401A0BD0401A07D00C
:102E9000884201D1082108E0102106E0002104E069
:102EA000022102E0042100E010215B48594E83001A
:102EB000BA4236D1002913D0022914D0042917D0E0
:102EC000082918D000200125002862D0626851002E
:102ED0005118814202D8110381420FD201258AE0A4
:102EE000FEF766FBF0E73168C906EDD41846EBE75C
:102EF000FEF77EFBE8E70120C003E5E7010E0602CE
:102F00005008002330185941FDF71CF9032109022C
:102F1000424A411A914202D82168C8606BE00125FB
:102F200069E00122E769D203974235D1092919D214
:102F30000F007F443F79FF19BF4404070A140F14A0
:102F400014141200FEF734FB0EE0FEF741FB0BE019
:102F50003168C90608D4184606E0FEF749FB03E0CD
:102F6000104601E000200125002844D0616840009F
:102F70004A088018FDF7BCF880B202462849103A8A
:102F80008A4207D8491C01400007420F0A432068C3
:102F9000C26030E001252EE0092919D20F007F44DC
:102FA0003F79FF19BF4404070A140F1414141200C8
:102FB000FEF7FEFA0EE0FEF70BFB0BE03168C906E8
:102FC00008D4184606E0FEF713FB03E0104601E0C4
:102FD0000020012500280ED061684A081018FDF76E
:102FE00087F880B201460E4A1039914202D8216812
:102FF000C86000E0012500206066A0662846F8BD94
:1030000000480040F369FFEF0038014040100240E3
:10301000004400400010024000093D00FFFC0F008A
:10302000EFFF000070B44165014640310A834A83D6
:1030300000234366012482682403FF25A24207D1AE
:103040000269002A01D08D8319E0234A8A8316E0A1
:103050007F26002A09D001252D07AA420ED1026938
:10306000002A09D03F228A8309E00269002A01D0A0
:103070008E8304E08D8302E08E8300E08B838021C9
:103080000B502221C167EFF31082012181F31088D8
:1030900001688D68012635438D6082F31088816850
:1030A000A14202D10169002913D00C494166742163
:1030B0000B54EFF31081012282F31088006802683C
:1030C000FF2321331A43026081F3108870BC002073
:1030D000704703494166EAE7FF010000232D00081D
:1030E0007B2C0008FFB581B00A9D04460E461746AA
:1030F0002068C169304688433FD00020B84268D17B
:10310000204660300090681C5BD0FDF711FD0499EB
:10311000401AA84233D8002D31D0206801684907F1
:103120004FD5C069C04300054BD401202168C002BF
:103130000862EFF31081012080F310882068026894
:10314000FF23A1339A43026081F31088EFF31081CB
:10315000012080F310882068826852085200826043
:1031600081F310882020A067E067803420600099F8
:1031700000200875032005B0F0BD0120BEE7EFF385
:103180001081012080F3108820680268FF23A1339A
:103190009A43026081F31088EFF31081012080F3DD
:1031A00010882068826852085200826081F310887B
:1031B0002020A067E067009900200875032005B073
:1031C000F0BD2068C1693046884305D00020B84270
:1031D00099D0002005B0F0BD0120F8E710B50248F5
:1031E000FEF72CFE10BD0000C00000202021020CC4
:1031F00001D010211046020A01D0104608390209F8
:1032000001D01046091F820801D01046891E4208CD
:1032100001D0881E7047081A7047F0B4040C8BB2B6
:10322000264682B25E430D0C1046370C58433604D6
:1032300080190021794116466E43370C36048019F7
:10324000794126466E438919F0BC704702E008C8F0
:10325000121F08C1002AFAD170477047002001E010
:1032600001C1121F002AFBD1704700000021074B4B
:1032700008E000BF00BF1A4600BF521E002AFBDC58
:10328000491C89B28142F4D370470000AE040000AB
:10329000F8B54A002B4B520DD6182B4A0C46054662
:1032A000142E2BDA002E12DA284BFDF76DF80022CF
:1032B0001346FDF7C9FA40D2002C02DB0024254654
:1032C0003BE060004008284337D0214C14E0214FF8
:1032D0000B46F7403B402B4331D01C4BFDF754F8D5
:1032E00000221346FDF7B0FA27D2002C03DA0120A2
:1032F0000005F0400419BC4300251EE0332E1EDCFF
:1033000033460027143BFF43DF40384217D00F4BB2
:10331000FDF7E4F800221346FDF796FA0DD2002CD3
:103320000ADA142E0CD03420811B01208840401969
:10333000A84200D2641C0546BD4321462846F8BD7C
:10334000641CF9E701FCFFFF9C7500883CE4377EB4
:103350000000F0BFFFFF0F001CB5FDF7EDFEFFF70B
:1033600049FAFFF73FF900242A48009428490194BC
:1033700001601921C9018460416063214461C16019
:10338000FEF784FC002800D0FEE70094694621483F
:103390000194FEF74DFC002800D0FEE7FFF786F908
:1033A000FFF75AF9FFF70AFA0A20FDF7F7FA0121A9
:1033B000002289021848FDF7B5FB052000221021E4
:1033C0000007FDF7AFFB0A20FDF7E8FAFFF701FA67
:1033D0000A20FDF7E3FA0F48072210494030FEF7B4
:1033E000E9FE0E4C1C3C2078462808D0522809D013
:1033F0004C280AD05328F6D1FFF7EBF9F3E7FFF793
:1034000071F9F0E7FFF7F6FAEDE7FFF797FAEAE769
:103410000010004080000020000400501C0000202C
:1034200010B51C46029B401A1B1B5843511AFCF74F
:1034300075FE001910BD10B580210020FEF7E2FFD7
:103440000A20FFF713FF10BD38B504460D460D489E
:1034500000900D4BB42200212846FFF7E1FFFDF755
:10346000ADF80A49FCF746FF0949FCF706FF0C21B5
:10347000FCF77EFFFDF7ADF882B20021204600F098
:1034800009F838BD2E0900008A02000000247449A2
:103490000000484208B56B461970090A59709A70C5
:1034A000110A8000D970801DC0B204226946FEF75F
:1034B000B9FF08BD70B5FDF7C3F81D4A1D4BFDF7F8
:1034C00015F8FDF7D1F804460B211B48C943FCF75A
:1034D0004FFF2146FCF70EFF7F21C905FCF7C5FE13
:1034E000FDF7AEF80022154BFCF74EFFFFF7D0FEBC
:1034F000FDF788F8C5B20020FEF71EFF410604461E
:10350000490E102001430020FEF77CFF2946FE20D3
:10351000FEF778FF21460020FEF774FF0520FFF735
:10352000A5FEA02121430020FEF76CFF70BD000026
:10353000CDCCCCCCCCCCEC3F20BCBE4B0000E03F93
:103540000000000000000000010203040607080953
:10355000030406080C1018203000000000010203CC
:103560000400000084350008000000203400000042
:103570004C320008B8350008340000201405000063
:103580005C32000853000000000000000000000052
:103590000000000061000000600000005A00000010
:1035A0000000000000000000010000000400000016
:0835B0000000000080841E00F1
:04000005080000C12E
:00000001FF
